:100000000C9462000C948A000C948A000C948A0070
:100010000C948A000C948A000C948A000C948A0038
:100020000C948A000C948A000C948A000C948A0028
:100030000C948A000C948A000C948A000C948A0018
:100040000C94B7060C948A000C9485060C945F06F9
:100050000C948A000C948A000C948A000C948A00F8
:100060000C948A000C948A000000000024002700F1
:100070002A0000000000250028002B0000000008D6
:10008000000201000003040700000000000000005F
:1000900000000000230026002900040404040404D6
:1000A0000404020202020202030303030303010227
:1000B00004081020408001020408102001020408F6
:1000C0001020010711241FBECFEFD8E0DEBFCDBF47
:1000D00011E0A0E0B1E0E6E0F8E102C005900D9289
:1000E000AA37B107D9F722E0AAE7B1E001C01D9213
:1000F000AB34B207E1F710E0C2E6D0E004C02197CC
:10010000FE010E94FB0BC136D107C9F70E946C07A4
:100110000C94010C0C940000CF92DF92EF92FF92AE
:10012000CF93DF93B0912702A0E08111AB2F809194
:10013000280290E0880F991FAC0140575F4FC09094
:100140002D02D0902E02E0902F02F090300230E08D
:1001500020E0FA01C591D491E881B90190E080E0F6
:10016000EB23EA130AC02F5F3F4F6C157D058E0508
:100170009F0578F36FEF7FEFCB01DF91CF91FF9079
:10018000EF90DF90CF900895AF92BF92CF92DF9221
:10019000EF92FF920F931F93CF93DF936C017B013C
:1001A0008B01040F151FEB015E01AE18BF08C017CD
:1001B000D10759F06991D601ED91FC910190F08140
:1001C000E02DC6010995892B79F7C501DF91CF9103
:1001D0001F910F91FF90EF90DF90CF90BF90AF9065
:1001E0000895FC01538D448D252F30E0842F90E03D
:1001F000821B930B541710F0CF9608950197089522
:10020000FC01918D828D981761F0A28DAE0FBF2FEA
:10021000B11D5D968C91928D9F5F9F73928F90E040
:1002200008958FEF9FEF0895FC01918D828D9817AF
:1002300031F0828DE80FF11D858D90E008958FEFEC
:100240009FEF0895FC01918D228D892F90E0805CB5
:100250009F4F821B91098F739927089583E891E03E
:100260000E94220121E0892B09F420E0822F0895C9
:1002700080E090E0892B29F00E942E0181110C94DE
:1002800000000895FC01A48DA80FB92FB11DA35A39
:10029000BF4F2C91848D90E001968F739927848FA6
:1002A000A689B7892C93A089B1898C9183708064C9
:1002B0008C93938D848D981306C00288F389E02D6A
:1002C00080818F7D80830895EF92FF920F931F931B
:1002D000CF93DF93EC0181E0888F9B8D8C8D9813F9
:1002E0001AC0E889F989808185FF15C09FB7F89405
:1002F000EE89FF896083E889F98980818370806451
:1003000080839FBF81E090E0DF91CF911F910F919B
:10031000FF90EF900895F62E0B8D10E00F5F1F4FAA
:100320000F731127E02E8C8D8E110CC00FB607FCB9
:10033000FACFE889F989808185FFF5CFCE010E9447
:100340004201F1CFEB8DEC0FFD2FF11DE35AFF4F72
:10035000F0829FB7F8940B8FEA89FB8980818062D5
:10036000CFCFCF93DF93EC01888D8823B9F0AA8992
:10037000BB89E889F9898C9185FD03C0808186FD60
:100380000DC00FB607FCF7CF8C9185FFF2CF8081AF
:1003900085FFEDCFCE010E944201E9CFDF91CF91E1
:1003A0000895833081F028F4813099F08230A9F0EB
:1003B00008958730A9F08830C9F08430B1F4809175
:1003C00080008F7D03C0809180008F7780938000B4
:1003D000089584B58F7784BD089584B58F7DFBCF54
:1003E0008091B0008F778093B00008958091B00025
:1003F0008F7DF9CF1F93CF93DF93282F30E0F90142
:10040000E458FF4F8491F901E255FF4FD491F9016F
:10041000E656FF4FC491CC23A9F0162F81110E94FC
:10042000D101EC2FF0E0EE0FFF1FEE58FF4FA5912A
:10043000B4918FB7F894EC91111108C0D095DE23D8
:10044000DC938FBFDF91CF911F910895DE2BF8CF02
:10045000CF93DF9390E0FC01E255FF4F2491865645
:100460009F4FFC0184918823C9F090E0880F991F69
:10047000FC01E859FF4FA591B491FC01EE58FF4FE4
:10048000C591D49161110DC09FB7F8948C912095BE
:1004900082238C938881282328839FBFDF91CF916B
:1004A0000895623051F49FB7F8943C91822F809563
:1004B00083238C93E8812E2BEFCF8FB7F894EC91A8
:1004C0002E2B2C938FBFEACF3FB7F89480917B01FE
:1004D00090917C01A0917D01B0917E0126B5A89BF1
:1004E00005C02F3F19F00196A11DB11D3FBFBA2FC6
:1004F000A92F982F8827BC01CD01620F711D811D86
:10050000911D42E0660F771F881F991F4A95D1F70A
:1005100008958F929F92AF92BF92CF92DF92EF9207
:10052000FF924B015C010E9464026B017C010E94FE
:1005300064026C197D098E099F09683E734081052C
:100540009105A8F321E0821A9108A108B10888EE6C
:10055000C80E83E0D81EE11CF11C81149104A10493
:10056000B10429F7FF90EF90DF90CF90BF90AF904C
:100570009F908F900895CF92DF92EF92FF920F930A
:100580001F93CF93DF93CDB7DEB7C054D1400FB6E2
:10059000F894DEBF0FBECDBF2FB7F89480917F01D6
:1005A00090918001A0918101B09182012FBF409173
:1005B000290250912A0260912B0270912C028C0129
:1005C0009D01041B150B260B370BB901A801403DFB
:1005D00057406105710590F480913102C05CDE4F97
:1005E0000FB6F894DEBF0FBECDBFDF91CF911F9144
:1005F0000F91FF90EF90DF90CF90089580932902A4
:1006000090932A02A0932B02B0932C021092240202
:1006100010922302109222021092210210922002C4
:1006200062E0809125020E94280261E070E080E093
:1006300090E00E94890261E0809125020E942802D8
:1006400060E0809125020E94FA0180912602855186
:10065000823020F58BE291E10197F1F762E0809121
:1006600025020E9428028091320290E0823091059A
:1006700038F0880F991F880F991F05970197F1F798
:10068000F89480E00E948C006F3F7F4F8F4F9F4F08
:1006900061F410923102789480E0A0CF64E170E0C0
:1006A00080E090E00E948902D9CF81E00E948C0016
:1006B0006F3F7F4F8F4F9F4F61F38E010F5F1F4F33
:1006C0006E018FEBC81A8EEFD80A780180E00E9485
:1006D0008C00F701608371838283938381E00E94A1
:1006E0008C00F7016483758386839783F8E0EF0EAF
:1006F000F11CEC14FD0451F7789430E020E0F8018F
:10070000C080D180E280F380448155816681778109
:10071000FFEFCF16DF06EF06FF0631F04F3F8FEFFA
:1007200058076807780719F410923102B5CFF9011C
:1007300083E0F595E7958A95E1F7E05EFD4F8081CE
:10074000880FC416D506E606F70610F180832F5FE2
:100750003F4F085F1F4F2832310589F64091240230
:100760002091200280912102280F3327331F80918E
:100770002202280F311D80912302820F932F911D99
:1007800099274817190681F681E08093310226CF18
:100790008160DCCF089590E080E00895FB01019036
:1007A0000020E9F73197AF01461B570BDC01ED91B3
:1007B000FC910280F381E02D09948F929F92AF9279
:1007C000BF92EF92FF920F931F93CF93DF93CDB71A
:1007D000DEB7A1970FB6F894DEBF0FBECDBF7C0188
:1007E000FA01CB0119A2223008F42AE08E010F5D34
:1007F0001F4F822E912CB12CA12CBF01A501940179
:100800000E94D90BF901CA016A300CF5605DD8016C
:100810006E938D01232B242B252B79F790E080E01C
:10082000109721F0BD01C7010E94CE03A1960FB61B
:10083000F894DEBF0FBECDBFDF91CF911F910F9116
:10084000FF90EF90BF90AF909F908F900895695C5C
:10085000DECF2F923F924F925F926F927F928F9254
:100860009F92AF92BF92CF92DF92EF92FF921F932F
:10087000CF93DF93EC016A017B01722EAB019601ED
:10088000CB01B6010E94D40B6EE171E0811126C04C
:1008900046015701E894B7F82FEF3FEF4FE75FE7C6
:1008A000C501B4010E94D40B81110CC02FEF3FEFA2
:1008B0004FE75FE7C501B4010E940A0A62E271E0F6
:1008C000181664F02FEF3FEF4FE75FE4C701B60162
:1008D0000E94620B1816B4F466E271E0CE01DF915B
:1008E000CF911F91FF90EF90DF90CF90BF90AF908E
:1008F0009F908F907F906F905F904F903F902F9040
:100900000C94CE032FEF3FEF4FE75FECC701B6012A
:100910000E940A0A87FDE0CF20E030E0A901C7016C
:10092000B6010E940A0A312C212C87FF0DC0E881F4
:10093000F9810190F081E02D6DE2CE0109951C0155
:10094000F7FAF094F7F8F09410E060E070E080E0DF
:100950009FE3711641F020E030E040E251E40E9454
:100960000F0A1F5FF6CFA70196010E949E092B0177
:100970003C010E94810A4B015C012AE0BC01A401F8
:10098000CE010E94DD037C01E20CF31C1123E1F196
:10099000C501B4010E94B00A9B01AC01C301B201C0
:1009A0000E949D094B015C01E881F9810190F08171
:1009B000E02D6EE2CE010995E80EF91E115020F1EE
:1009C00020E030E040E251E4C501B4010E94670B31
:1009D0002B013C010E94810A4B01B12CA12C2AE081
:1009E000B501A401CE010E94DD03E80EF91EC50188
:1009F000B4010E94B00A9B01AC01C301B2010E9484
:100A00009D094B015C01DACFC701DF91CF911F91A6
:100A1000FF90EF90DF90CF90BF90AF909F908F901E
:100A20007F906F905F904F903F902F900895CF935D
:100A3000DF93EC0160E08E810E94FA0161E08E811B
:100A40000E94FA0160E08E810E94FA018BE891E039
:100A50000197F1F7DF91CF910895CF92DF92EF9256
:100A6000FF920F931F93CF93DF936C017C0187E07C
:100A7000E80EF11CD0E0C0E0062F10E0B8010C2E0B
:100A800002C0759567950A94E2F76170F70181914C
:100A90007F010E94FA012196C430D10579F7C60181
:100AA000DF91CF911F910F91FF90EF90DF90CF904A
:100AB0000C941705CF92DF92EF92FF920F931F9342
:100AC000CF93DF93EC01F62E642F8C810E94FA0104
:100AD0008D818F3F19F060E00E94FA010F2D10E028
:100AE0008F8584FF25C06E0187E0C80ED11CF12CD4
:100AF000E12CB8010E2C02C0759567950A94E2F7B7
:100B00006170F60181916F010E94FA01FFEFEF1A07
:100B1000FF0A88E0E816F10461F7CE01DF91CF917A
:100B20001F910F91FF90EF90DF90CF900C941705DD
:100B3000B80184E0759567958A95E1F7CE010E942A
:100B40002D056F2DCE01DF91CF911F910F91FF9059
:100B5000EF90DF90CF900C942D0540E0682F83E359
:100B600092E00C945A05CF93DF93823029F4909150
:100B7000420298609093420280934602109247028C
:100B800080E48093480280E18093490280E580936D
:100B90004A0261E0809137020E9428028091380267
:100BA0008F3F19F061E00E94280261E080913902D4
:100BB0000E942802C3E3D2E09E0123533240809179
:100BC000420284FD0BC084E090E02196281739078B
:100BD00044F461E08E810E942802EECF88E090E02C
:100BE000F4CF8BE39DE00197F1F760E0809137024D
:100BF0000E94FA0160E0809139020E94FA0180911E
:100C000038028F3F19F060E00E94FA0180914202A1
:100C100084FD39C063E083E392E00E942D05CBE4BC
:100C2000D6E4CE010197F1F763E083E392E00E94FE
:100C30002D052197F1F763E083E392E00E942D05F3
:100C400083E592E00197F1F762E083E392E00E948E
:100C50002D058091420280620E94AD0584E0809360
:100C600043028CE00E94AD0581E00E94AD058BE35C
:100C70009FE10197F1F782E08093440286E0DF91E3
:100C8000CF910C94AD0580620E94AD058BE496E493
:100C90000197F1F78091420280620E94AD0583E5E1
:100CA00092E00197F1F78091420280620E94AD05C7
:100CB000D0CF41E00E945A0581E090E008951F9254
:100CC0000F920FB60F9211242F933F934F935F9380
:100CD0006F937F938F939F93AF93BF93EF93FF9304
:100CE00083E891E00E944201FF91EF91BF91AF91A3
:100CF0009F918F917F916F915F914F913F912F9134
:100D00000F900FBE0F901F9018951F920F920FB665
:100D10000F9211242F938F939F93EF93FF93E09162
:100D20009301F09194018081E0919901F0919A01F1
:100D300082FD1BC0908180919C018F5F8F732091F9
:100D40009D01821741F0E0919C01F0E0ED57FE4FCC
:100D5000958F80939C01FF91EF919F918F912F919F
:100D60000F900FBE0F901F9018958081F4CF1F92A7
:100D70000F920FB60F9211242F933F938F939F934F
:100D8000AF93BF9380917F0190918001A0918101E9
:100D9000B091820130917A0123E0230F2D3758F56D
:100DA0000196A11DB11D20937A0180937F0190933C
:100DB0008001A0938101B093820180917B01909189
:100DC0007C01A0917D01B0917E010196A11DB11D14
:100DD00080937B0190937C01A0937D01B0937E0171
:100DE000BF91AF919F918F913F912F910F900FBE27
:100DF0000F901F90189526E8230F0296A11DB11D94
:100E0000D2CFE3E8F1E01382128288EE93E0A0E013
:100E1000B0E084839583A683B78384E091E09183D7
:100E2000808385EC90E09587848784EC90E09787B9
:100E3000868780EC90E0918B808B81EC90E0938BA7
:100E4000828B82EC90E0958B848B86EC90E0978B84
:100E5000868B118E128E138E148EE3E3F2E01382D2
:100E6000128286E191E09183808387E084838FEF13
:100E7000858386E0868385E0878384E0808783E0BE
:100E8000818782E0828713861486158616861786E8
:100E900081E00E94B305A0E2B2E088E015968C9351
:100EA00015978BE016968C931697E6EBF0E0E4919D
:100EB0001796EC931797E2EAF0E0E4911896EC931A
:100EC000189740E85EE360E070E01D964D935D93F7
:100ED0006D937C9350970895789484B5826084BD17
:100EE00084B5816084BD85B5826085BD85B581602E
:100EF00085BD80916E00816080936E0010928100AC
:100F00008091810082608093810080918100816066
:100F10008093810080918000816080938000809127
:100F2000B10084608093B1008091B00081608093B3
:100F3000B00080917A00846080937A0080917A007A
:100F4000826080937A0080917A00816080937A0039
:100F500080917A00806880937A001092C10061E0ED
:100F600089E00E94280260E08AE00E942802E09165
:100F70009301F091940182E08083E0918F01F091E0
:100F800090011082E0919101F09192018FEC8083A9
:100F900010929B01E0919701F091980186E0808387
:100FA000E0919501F0919601808180618083E091CC
:100FB0009501F0919601808188608083E091950190
:100FC000F0919601808180688083E0919501F09195
:100FD000960180818F7D808382E00E94B30562E06C
:100FE000809125020E9428022FB7F89480917F01FA
:100FF00090918001A0918101B09182012FBF805D0D
:101000009740A109B1098093290290932A02A093E5
:101010002B02B0932C0287E38093320256E8252EF0
:1010200050E0352EC8EBD0E004EA10E060E0A62ED8
:1010300060E0B62E0E94BB02882349F08091260210
:101040008B3028F08D3050F085518230C8F1412C22
:10105000512C40EC642E4FE7742E1EC0609121028B
:1010600070E090E080E00E94B20A2DEC3CEC4CEC89
:101070005DE30E94670B6B017C016091200270E0D0
:1010800090E080E00E94B20A9B01AC01C701B6016A
:101090000E949E092B013C010E94BB02882309F497
:1010A000DAC0809126028C3009F4B0C0D8F48B30BD
:1010B00091F1C12CD12C20ECE22E2FE7F22E55C05D
:1010C000609120027091210276276727762790E0B1
:1010D00080E00E94B00A2DEC3CEC4CEC5DE30E94F9
:1010E000670BD8CF8551823020F790902202692D6E
:1010F00070E0762F662766277F7780912302682B22
:1011000090E080E00E94B00A2DEC3CEC4CEC5DE3FA
:101110000E94670B97C06091220270E090E080E02F
:101120000E94B00A6B017C019090230297FE0AC0D6
:10113000AC019B0160E070E080E89FEB0E949D099C
:101140006B017C01692D6F7070E090E080E00E947F
:10115000B20A2DEC3CEC4CEC5DE30E94670BA7015E
:1011600096010E949E096B017C01A7019601C701AF
:10117000B6010E94D40B811109C0A3019201C301E1
:10118000B2010E94D40B882309F46CC06AE271E0BA
:1011900083E891E00E94CE0362E471E083E891E08D
:1011A0000E94CE0320E030E040E252E4C701B601E5
:1011B0000E94620B87FD04C061E089E00E94FA0191
:1011C000F1018491FE01E490F801F490FF2091F088
:1011D00081110E94D101EF2DF0E0EE0FFF1FE057CB
:1011E000FF4FA591B4918C91E82221F060E089E055
:1011F0000E94FA01A114B10409F41CCF0E942E012F
:10120000882309F417CF0E94000014CF9090220287
:10121000692D70E090E080E00E94B00A6B017C01D3
:10122000609123026F7070E090E080E00E94B20A4B
:101230002DEC3CEC4CEC5DE30E94670BA7019601A2
:101240000E949E096B017C0197FE8FCFF7FAF09404
:10125000F7F8F0948ACFC12CD12C90ECE92E9FE7BF
:10126000F92E94CFE1E0809146028111E0E0E19512
:10127000F0E0ED5CFD4F848980680E94AD0565E477
:1012800071E083E392E00E94CE0322E0B701A60161
:1012900083E392E00E9429046BE471E083E392E02F
:1012A0000E94CE03E0914602E23008F044C0E150D3
:1012B000F0E0ED5CFD4F848980680E94AD056FE42D
:1012C00071E083E392E00E94CE0322E0B301A20129
:1012D00083E392E00E94290469E571E083E392E0F0
:1012E0000E94CE0364EF71E080E090E00E948902EA
:1012F0006CE571E083E891E00E94CE0322E0B30147
:10130000A20183E891E00E94290467E671E083E886
:1013100091E00E94CE036AE671E083E891E00E94CA
:10132000CE0322E0B701A60183E891E00E942904E0
:101330006BE471E02DCFE1E0BBCF5058BB27AA276B
:101340000E94B5090C94280B0E941A0B38F00E94D9
:10135000210B20F039F49F3F19F426F40C94170B5D
:101360000EF4E095E7FB0C94110BE92F0E94390B6A
:1013700058F3BA17620773078407950720F079F4CA
:10138000A6F50C945B0B0EF4E0950B2EBA2FA02D56
:101390000B01B90190010C01CA01A0011124FF2722
:1013A000591B99F0593F50F4503E68F11A16F0401D
:1013B000A22F232F342F4427585FF3CF469537951C
:1013C0002795A795F0405395C9F77EF41F16BA0BE1
:1013D000620B730B840BBAF09150A1F0FF0FBB1F8F
:1013E000661F771F881FC2F70EC0BA0F621F731FD8
:1013F000841F48F4879577956795B795F7959E3F35
:1014000008F0B0CF9395880F08F09927EE0F9795C5
:10141000879508950E94ED0A08F481E008950E94DE
:10142000230A0C94280B0E94210B58F00E941A0BDF
:1014300040F029F45F3F29F00C94110B51110C94EA
:101440005C0B0C94170B0E94390B68F39923B1F3D2
:10145000552391F3951B550BBB27AA2762177307DA
:10146000840738F09F5F5F4F220F331F441FAA1F6E
:10147000A9F335D00E2E3AF0E0E832D0915050402A
:10148000E695001CCAF72BD0FE2F29D0660F771FD8
:10149000881FBB1F261737074807AB07B0E809F0BE
:1014A000BB0B802DBF01FF2793585F4F3AF09E3F43
:1014B000510578F00C94110B0C945C0B5F3FE4F336
:1014C000983ED4F3869577956795B795F7959F5F86
:1014D000C9F7880F911D9695879597F90895E1E0D2
:1014E000660F771F881FBB1F621773078407BA0731
:1014F00020F0621B730B840BBA0BEE1F88F7E0958C
:1015000008950E94410B88F09F5798F0B92F9927B2
:10151000B751B0F0E1F0660F771F881F991F1AF0DE
:10152000BA95C9F714C0B13091F00E945B0BB1E0DD
:1015300008950C945B0B672F782F8827B85F39F0DC
:10154000B93FCCF3869577956795B395D9F73EF477
:1015500090958095709561957F4F8F4F9F4F08951F
:10156000E89409C097FB3EF490958095709561953D
:101570007F4F8F4F9F4F9923A9F0F92F96E9BB27F3
:101580009395F695879577956795B795F111F8CF6F
:10159000FAF4BB0F11F460FF1BC06F5F7F4F8F4FDA
:1015A0009F4F16C0882311F096E911C0772321F0D0
:1015B0009EE8872F762F05C0662371F096E8862F68
:1015C00070E060E02AF09A95660F771F881FDAF7BF
:1015D000880F9695879597F90895990F0008550FEC
:1015E000AA0BE0E8FEEF16161706E807F907C0F0A9
:1015F00012161306E407F50798F0621B730B840BB1
:10160000950B39F40A2661F0232B242B252B21F48A
:1016100008950A2609F4A140A6958FEF811D811D2A
:10162000089597F99F6780E870E060E008959FEF64
:1016300080EC089500240A94161617061806090669
:10164000089500240A941216130614060506089538
:10165000092E0394000C11F4882352F0BB0F40F4C0
:10166000BF2B11F460FF04C06F5F7F4F8F4F9F4F00
:10167000089557FD9058440F551F59F05F3F71F082
:101680004795880F97FB991F61F09F3F79F08795E9
:101690000895121613061406551FF2CF4695F1DF72
:1016A00008C0161617061806991FF1CF8695710502
:1016B000610508940895E894BB2766277727CB0136
:1016C00097F908950E94ED0A08F48FEF08950E949B
:1016D0007A0B0C94280B0E941A0B38F00E94210BF5
:1016E00020F0952311F00C94110B0C94170B11247E
:1016F0000C945C0B0E94390B70F3959FC1F3950F0E
:1017000050E0551F629FF001729FBB27F00DB11D85
:10171000639FAA27F00DB11DAA1F649F6627B00D15
:10172000A11D661F829F2227B00DA11D621F739FFE
:10173000B00DA11D621F839FA00D611D221F749F0C
:101740003327A00D611D231F849F600D211D822F53
:10175000762F6A2F11249F5750409AF0F1F088237A
:101760004AF0EE0FFF1FBB1F661F771F881F9150A7
:101770005040A9F79E3F510580F00C94110B0C943A
:101780005C0B5F3FE4F3983ED4F3869577956795BD
:10179000B795F795E7959F5FC1F7FE2B880F911DD1
:1017A0009695879597F908950E94ED0A880B990BF5
:1017B0000895A1E21A2EAA1BBB1BFD010DC0AA1F92
:1017C000BB1FEE1FFF1FA217B307E407F50720F0AA
:1017D000A21BB30BE40BF50B661F771F881F991F25
:1017E0001A9469F760957095809590959B01AC016E
:1017F000BD01CF010895EE0FFF1F0590F491E02D7C
:061800000994F894FFCFEB
:10180600000000006401C400F100B10122010001E2
:101816001401000000005906C400CB03CA036E6120
:101826006E00696E66006F7666004661696C656477
:1018360020746F20726561642066726F6D20444863
:1018460054000D0A0054656D703D00202A4300487F
:10185600756D69646974793D0025200048756D6968
:10186600646974793A2000202500202054656D7043
:0A187600657261747572653A200016
:00000001FF
